:020000040800F2
:10000000F00C002071010008790100087B01000854
:100010007D0100087F010008810100080000000048
:100020000000000000000000000000002D0100089A
:1000300085010008000000003D010008A904000837
:100040008B0100088B0100088B0100088B01000860
:100050008B0100088B0100088B0100088B01000850
:100060008B0100088B0100088B0100088B01000840
:100070008B0100088B0100088B0100088B01000830
:100080008B0100088B0100088B0100088B01000820
:100090008B0100088B0100088B0100088B01000810
:1000A0008B0100088B0100088B0100088B01000800
:1000B0008B0100088B0100088B0100088B010008F0
:1000C0008B0100088B0100088B0100088B010008E0
:1000D0008B0100088B0100088B0100088B010008D0
:1000E0008B0100088B0100088B010008DFF80CD0A1
:1000F00000F050F80048004751060008F00C0020BE
:1001000072B600F0E3FA68B1074908600068B0E829
:10011000F00F80F30988022080F31488BFF36F8FFB
:1001200000DFFEE700BE00001800002062B6EFF31B
:100130000980203080F30988704700002DE90050C5
:10014000EFF3098020E9F00F08490968086000F022
:10015000E7FA40B1054908600068B0E8F00F80F3A5
:100160000988BDE80090BDE800900000180000205C
:100170000648804706480047FEE7FEE7FEE7FEE741
:10018000FEE7FEE7FEE7FEE7FEE7FEE76D05000897
:10019000ED000008064C074D06E0E06840F0010362
:1001A00094E8070098471034AC42F6D3FFF7A2FF5B
:1001B000C4090008E409000800B50C48806940F053
:1001C00004000A4988610A48006820F00F000849C5
:1001D00008600846006840F00300086008460068B0
:1001E00040F00800086000F005F800BD0010024073
:1001F000000801400548006840F00100034908601C
:100200000846006820F480300860704710080140FC
:10021000FFF7D2FF06E000F009F84FF4FA71024848
:1002200000F056FBF7E70000580200201048006875
:1002300000F0010068B90E48001D006840F00100A0
:100240000B49091D08600846006820F480300860EA
:100250000CE00748001D006840F480300449091D87
:1002600008600846006820F0010008607047000040
:100270000C08014000B50C48806940F004000A49B0
:1002800088610A48006820F0F000084908600846C4
:10029000006840F0300008600846006840F08000C8
:1002A000086000F005F800BD0010024000080140A1
:1002B0000548006840F002000349086008460068ED
:1002C00020F400300860704710080140FFF7D2FFAB
:1002D00006E000F009F84FF4FA71024800F0F8FA6D
:1002E000F7E70000800400201048006800F00200DA
:1002F00068B90E48001D006840F002000B49091D56
:1003000008600846006820F4003008600CE00748E8
:10031000001D006840F400300449091D08600846CB
:10032000006820F002000860704700000C080140DF
:100330000EB500F0E1F900F083FA00208022CDE94B
:100340000020054B024605490290054800F08CFA52
:10035000FFF7D6FE0EBD0000580000204D04000837
:100360003000002010B500F001F810BD0CB50020E1
:10037000019000903348006840F4803031490860B3
:1003800000BF3048006800F4003000900198401C25
:100390000190009818B90198B0F5A06FF1D12948E3
:1003A000006800F4003010B10120009001E000204E
:1003B00000900098012843D12348006840F01000C5
:1003C000214908600846006820F0030008600846DC
:1003D000006840F0020008601A4840681949486007
:1003E0000846406848600846406840F480604860BD
:1003F0000846406820F47C1048600846406840F495
:10040000E81048600846006840F08070086000BF4F
:100410000C48006800F000700028F9D009484068D6
:1004200020F00300074948600846406840F0020099
:10043000486000BF0348406800F00C000828F9D16C
:100440000CBD000000100240002002400EB51CE070
:100450000120022180220D4BCDE9002102900022D3
:100460000B490C4800F000FA0120022180220A4BBF
:10047000CDE90021029000220849094800F0F4F972
:100480004FF4FA71074800F023FAE1E780020020F8
:100490001102000858020020A8040020CD02000824
:1004A000800400203000002010B506480068401C81
:1004B0000449086000F09EF90248006800F0AEF8B8
:1004C00010BD00001000002010B500210020002207
:1004D000214B5B6803F00C0121B1042906D00829E7
:1004E00028D107E01D4B1E4C236027E01B4B1C4C02
:1004F000236023E0184B5B6803F47010164B5B68B5
:1005000003F48032022303EB904022B9154B43439E
:10051000134C23600DE0104B5B6803F4003323B1F0
:10052000104B43430E4C236003E00C4B43430C4CF5
:10053000236003E0094B0A4C236000BF00BF064B59
:100540005B68C3F30313084CE15C054B1B68CB40AD
:10055000034C236010BD00000010024000127A001E
:100560001C00002000093D002000002010B51348A9
:10057000006840F0010011490860084640681049D1
:1005800008400E494860084600680E4908400B497B
:1005900008600846006820F480200860084640682B
:1005A00020F4FE0048604FF41F008860FFF7DAFE79
:1005B0004FF000600449086010BD000000100240C8
:1005C0000000FFF8FFFFF6FE08ED00E002E008C8BB
:1005D000121F08C1002AFAD170477047002001E0BD
:1005E00001C1121F002AFBD17047000010B50A4656
:1005F000436A1344C361084902E00B6803F1180120
:100600000B6823B10B68DB69C469A342F5D90B6899
:100610008361086010BD00001400002070B505461D
:100620000BE00A4804680949A06908600020A0613D
:100630002074204600F010F800BF0448006820B184
:1006400002480068C069A842EBD970BD14000020C0
:10065000FFF76EFE00BFFEE7F0B500B9F0BD82689F
:10066000082A00D30722164D05EB820319680024DF
:1006700001E00C46496919B14D684668B542F8D2A7
:100680001CB91D684561186001E060614161002589
:1006900005740C4D2D688DB10A4E3668B568AA42B6
:1006A00007D8AA4209D1074F46683F687F68BE4213
:1006B00003D94FF08056044F3E6000BF00BFCDE726
:1006C000D00800201800002004ED00E007210DE014
:1006D000084A52F8210040B1064B426943F82120F4
:1006E00000224261012202747047491E0029EFDA9C
:1006F0000020F9E7D0080020002004E00021064A8D
:1007000042F82010401C0828F8DBFF20034908703D
:10071000F020491C08707047D008002022ED00E04E
:1007200070B51F4804681F48007808B1012000E038
:1007300000200646CEB9C4B1A1686268072006E071
:10074000194B53F820300BB1012602E0401E8842BD
:10075000F6DC00BF46B9144B53F8210018B14368CA
:10076000934200D9012600BF00BF0EB9204670BDDC
:1007700000200C4908702CB1207C012802D12046B1
:10078000FFF76AFFFFF7A2FF05460DB92046EEE727
:10079000A54202D00020054908602846E7E700008E
:1007A0001800002008000020D008002004000020CD
:1007B00030B5014601B930BD8C68082C00D3072440
:1007C0000B4D05EB8403186800220CE0884208D129
:1007D00012B945691D6001E0456955610025456113
:1007E000E9E7024640690028F0D100BFE3E70000D6
:1007F000D00800200D480068401C0C4908600C48D7
:10080000006800B970470B480068401C094908603F
:10081000084600680A2807D300200860012006491E
:10082000087000070549086000BFEBE700000020E2
:1008300018000020040000200800002004ED00E063
:1008400010B5FFF741FE074800684FF47A71B0FB1E
:10085000F1F0401E4FF0E021486100208861072040
:10086000086110BD1C0000202DE9FF4F04468A4698
:100870009946DDE90EB80D9909EB81005146029ABF
:1008800000F050F82060B8F1080F01D34FF00708CE
:10089000C4F804B0C4F808800020207460610B48DC
:1008A00000EB88063568002701E02F466D691DB111
:1008B000686861688842F8D21FB930686061346046
:1008C00001E07C616561BDE8FF8F0000D008002079
:1008D00070B504460D4604B105B970BD0E480068F8
:1008E000844202D02046FFF763FF0C480068206274
:1008F0006562022020740020A0610848016820463B
:10090000FFF774FE04480068844203D14FF0805022
:100910000349086000BFE0E7180000201000002035
:1009200004ED00E030B5034618464FF08075041F13
:1009300020462560041F204621606FF00205041F39
:10094000204625604FF01235041F204625604FF0E9
:100950000335041F204625604FF00235041F204652
:1009600025606D10041F20462560041F204622606C
:100970004FF01135041F204625604FF01035041F3D
:10098000204625604FF00935041F204625604FF0B2
:100990000835041F204625604FF00735041F204608
:1009A00025604FF00635041F204625604FF00535C1
:1009B000041F204625604FF00435041F20462560A3
:1009C00030BD0000E40900080000002030000000F5
:1009D000CC050008140A000830000020C00C0000FC
:1009E000DC0500080000000000000000000000001E
:1009F00000000000000000000000000000000000F7
:100A000000A24A04000000000000000001020304EC
:040A100006070809C4
:04000005080000ED02
:00000001FF
